:0400000047EF00F0D6
:1000080005820E01C5AB0BEF00F00DEF00F010EF0D
:1000180000F0C59B830ED26EC8A115EF00F017EF54
:1000280000F03DEF00F094A41CEF00F01EEF00F08C
:1000380029EF00F094B023EF00F025EF00F02BEF4C
:1000480000F0610E916E2BEF00F091CF04F09588CF
:1000580095AC31EF00F033EF00F034EF00F0959CF1
:1000680095AE39EF00F03BEF00F03CEF00F0959EC5
:10007800C891C8A342EF00F044EF00F045EF00F04C
:10008800C89305921100ABEF00F0400E0E01D76F38
:10009800000ED36F070ED96F8994889A8990889833
:1000A8008792878089828886878489888788898AD1
:1000B8008986878A898C898E888E889C8484838A9D
:1000C8008490839882928296F28EF28CA1EC00F052
:1000D8000D0E90EC00F0120049EC00F082961F0E15
:1000E800036E710E026E1E0EE82EFED7022EFCD78E
:1000F800032EFAD700D082961F0E036E710E026E81
:100108001E0EE82EFED7022EFCD7032EFAD700D0FB
:1001180072EF00F047EF00F0016E360E956E000E9C
:10012800966E000E976E01500124926EFE0E936E2D
:100138000E01C891C081C0831200800ED46E460E95
:10014800D56E830ED26E0E01C59BBD8B1200046A5C
:0A01580005900592000170EF00F021
:020000040020DA
:10000000FFFFFFFFFFFFFFFFFFFFFFFFFFFFFFFF00
:10001000FFFFFFFFFFFFFFFFFFFFFFFFFFFFFFFFF0
:10002000FFFFFFFFFFFFFFFFFFFFFFFFFFFFFFFFE0
:10003000FFFFFFFFFFFFFFFFFFFFFFFFFFFFFFFFD0
:10004000FFFFFFFFFFFFFFFFFFFFFFFFFFFFFFFFC0
:10005000FFFFFFFFFFFFFFFFFFFFFFFFFFFFFFFFB0
:10006000FFFFFFFFFFFFFFFFFFFFFFFFFFFFFFFFA0
:10007000FFFFFFFFFFFFFFFFFFFFFFFFFFFFFFFF90
:10008000FFFFFFFFFFFFFFFFFFFFFFFFFFFFFFFF80
:10009000FFFFFFFFFFFFFFFFFFFFFFFFFFFFFFFF70
:1000A000FFFFFFFFFFFFFFFFFFFFFFFFFFFFFFFF60
:1000B000FFFFFFFFFFFFFFFFFFFFFFFFFFFFFFFF50
:1000C000FFFFFFFFFFFFFFFFFFFFFFFFFFFFFFFF40
:1000D000FFFFFFFFFFFFFFFFFFFFFFFFFFFFFFFF30
:1000E000FFFFFFFFFFFFFFFFFFFFFFFFFFFFFFFF20
:1000F000FFFFFFFFFFFFFFFFFFFFFFFFFFFFFFFF10
:020000040030CA
:0C0000008CD7FFFFFFFFFFFFFFFFFFFF9B
:00000001FF
