:040000003EEF00F0DF
:100008001D820E01C551C8A10CEF00F00EEF00F0E3
:1000180034EF00F094A413EF00F015EF00F020EF98
:1000280000F094B01AEF00F01CEF00F022EF00F09F
:10003800610E916E22EF00F091CF1CF0958895AC7F
:1000480028EF00F02AEF00F02BEF00F0959C95AE1A
:1000580030EF00F032EF00F033EF00F0959EC891DA
:10006800C8A339EF00F03BEF00F03CEF00F0C89375
:100078001D92110061EF01F0000E096E000E0A6E6C
:10008800000E0B6E000E0C6E0550061007100810BF
:10009800D8B451EF00F053EF00F089EF00F0010EF3
:1000A8000D6E5DEF00F0D890053606360736083637
:1000B8000D2A08AE62EF00F064EF00F057EF00F091
:1000C800D89009360A360B360C360550015C0650B6
:1000D80002580750035808500458D8A076EF00F08B
:1000E80078EF00F081EF00F00550015E0650025AEB
:1000F8000750035A0850045A0980D890083207322A
:10010800063205320D2E64EF00F009C001F00AC076
:1001180002F00BC003F00CC004F012000E50106E79
:100128000F50116E126A136A020ED89010361136EB
:1001380012361336E82E99EF00F012C013F011C0F2
:1001480012F010C011F0106A10C001F011C002F0D6
:1001580012C003F013C004F0640E056E000E066EA4
:10016800000E076E000E086E40EC00F001C00EF0A5
:1001780002C00FF00EC010F00FC011F0D89011326D
:100188001032D890113210321050A36E0EC010F0F9
:10019800030E1016060E116ED8901036112ED0EFE1
:1001A80000F0A2503F0B1010A26E12002FEC01F0CD
:1001B800F29E1AC00EF01BC00FF092EC00F01A4A23
:1001C8001B2A070E196E170E186E6A0EE82EFED738
:1001D800182EFCD7192EFAD700D01B5009E1640E4F
:1001E8001A5CD8A0FAEF00F0FCEF00F000EF01F085
:1001F800000E1B6E010E1A6E1A501B10D8A407EFC2
:1002080001F009EF01F0DDEF00F0000E1B6E630E48
:100218001A6EDDEF00F03EEF00F08786000EA46E48
:10022800BB68140EA36E400EA26E16C014F017C061
:1002380015F087EC01F00E01C993C193010EBE6E53
:10024800BC508F0B5009BC6EBC8E8796800EA46E76
:10025800070EE56F1200000E0F011C6F000E146FE1
:10026800000E0C6F0C9787968988898673EC01F0CD
:100278007DEC01F0130E4BEC01F0030E176EE80E47
:10028800166E11EC01F0F28CF28EF29A12003E0E0C
:10029800956E000E966E000E976E260E926E9368FF
:1002A800140E0E01B36F0D0EF56F0E0EF66F130ED2
:1002B800B26FC891C083C08112001E0EF66E030E85
:1002C800F76E000EF86E0900F5CF1AF00900F5CFA9
:1002D8001BF01C6A1D901D920001DAEF00F0600E01
:1002E8000E01D36FD951F00B0709D96F400ED76FA4
:1002F8001200800ED46E7A0ED56E830ED36E0E0168
:10030800C59BBD8B1200BB68000E0F6E010E0E6EF2
:0803180092EC00F0120001005C
:020000040020DA
:10000000FFFFFFFFFFFFFFFFFFFFFFFFFFFFFFFF00
:10001000FFFFFFFFFFFFFFFFFFFFFFFFFFFFFFFFF0
:10002000FFFFFFFFFFFFFFFFFFFFFFFFFFFFFFFFE0
:10003000FFFFFFFFFFFFFFFFFFFFFFFFFFFFFFFFD0
:10004000FFFFFFFFFFFFFFFFFFFFFFFFFFFFFFFFC0
:10005000FFFFFFFFFFFFFFFFFFFFFFFFFFFFFFFFB0
:10006000FFFFFFFFFFFFFFFFFFFFFFFFFFFFFFFFA0
:10007000FFFFFFFFFFFFFFFFFFFFFFFFFFFFFFFF90
:10008000FFFFFFFFFFFFFFFFFFFFFFFFFFFFFFFF80
:10009000FFFFFFFFFFFFFFFFFFFFFFFFFFFFFFFF70
:1000A000FFFFFFFFFFFFFFFFFFFFFFFFFFFFFFFF60
:1000B000FFFFFFFFFFFFFFFFFFFFFFFFFFFFFFFF50
:1000C000FFFFFFFFFFFFFFFFFFFFFFFFFFFFFFFF40
:1000D000FFFFFFFFFFFFFFFFFFFFFFFFFFFFFFFF30
:1000E000FFFFFFFFFFFFFFFFFFFFFFFFFFFFFFFF20
:1000F000FFFFFFFFFFFFFFFFFFFFFFFFFFFFFFFF10
:020000040030CA
:0C0000008CFFFFFF9FFFFFFFFFFFFFFFD3
:00000001FF
